{
  "contractName": "SimpleStorage",
  "abi": [
    {
      "inputs": [],
      "payable": false,
      "stateMutability": "nonpayable",
      "type": "constructor"
    },
    {
      "constant": true,
      "inputs": [],
      "name": "num_cand",
      "outputs": [
        {
          "internalType": "uint256",
          "name": "",
          "type": "uint256"
        }
      ],
      "payable": false,
      "stateMutability": "view",
      "type": "function"
    },
    {
      "constant": true,
      "inputs": [
        {
          "internalType": "uint256",
          "name": "",
          "type": "uint256"
        }
      ],
      "name": "proposal",
      "outputs": [
        {
          "internalType": "string",
          "name": "cand_name",
          "type": "string"
        },
        {
          "internalType": "string",
          "name": "party_name",
          "type": "string"
        },
        {
          "internalType": "string",
          "name": "party_img",
          "type": "string"
        },
        {
          "internalType": "string",
          "name": "cand_img",
          "type": "string"
        },
        {
          "internalType": "uint256",
          "name": "vote_count",
          "type": "uint256"
        }
      ],
      "payable": false,
      "stateMutability": "view",
      "type": "function"
    },
    {
      "constant": true,
      "inputs": [
        {
          "internalType": "address",
          "name": "",
          "type": "address"
        }
      ],
      "name": "voter",
      "outputs": [
        {
          "internalType": "string",
          "name": "name",
          "type": "string"
        },
        {
          "internalType": "string",
          "name": "elect_card",
          "type": "string"
        },
        {
          "internalType": "string",
          "name": "img",
          "type": "string"
        },
        {
          "internalType": "bool",
          "name": "voted",
          "type": "bool"
        },
        {
          "internalType": "bool",
          "name": "auth",
          "type": "bool"
        },
        {
          "internalType": "uint256",
          "name": "cand_vote",
          "type": "uint256"
        }
      ],
      "payable": false,
      "stateMutability": "view",
      "type": "function"
    },
    {
      "constant": false,
      "inputs": [
        {
          "internalType": "string",
          "name": "cand_name",
          "type": "string"
        },
        {
          "internalType": "string",
          "name": "party_name",
          "type": "string"
        },
        {
          "internalType": "string",
          "name": "party_img",
          "type": "string"
        },
        {
          "internalType": "string",
          "name": "cand_img",
          "type": "string"
        }
      ],
      "name": "AddCandidate",
      "outputs": [],
      "payable": false,
      "stateMutability": "nonpayable",
      "type": "function"
    },
    {
      "constant": false,
      "inputs": [
        {
          "internalType": "uint256",
          "name": "_id",
          "type": "uint256"
        },
        {
          "internalType": "string",
          "name": "cand_name",
          "type": "string"
        },
        {
          "internalType": "string",
          "name": "party_img",
          "type": "string"
        },
        {
          "internalType": "string",
          "name": "cand_img",
          "type": "string"
        }
      ],
      "name": "UpdateCandidate",
      "outputs": [],
      "payable": false,
      "stateMutability": "nonpayable",
      "type": "function"
    },
    {
      "constant": false,
      "inputs": [
        {
          "internalType": "string",
          "name": "name",
          "type": "string"
        },
        {
          "internalType": "string",
          "name": "elect_card",
          "type": "string"
        },
        {
          "internalType": "string",
          "name": "img",
          "type": "string"
        }
      ],
      "name": "AddUser",
      "outputs": [],
      "payable": false,
      "stateMutability": "nonpayable",
      "type": "function"
    },
    {
      "constant": false,
      "inputs": [
        {
          "internalType": "string",
          "name": "name",
          "type": "string"
        },
        {
          "internalType": "string",
          "name": "elect_card",
          "type": "string"
        },
        {
          "internalType": "string",
          "name": "img",
          "type": "string"
        }
      ],
      "name": "Updateuser",
      "outputs": [],
      "payable": false,
      "stateMutability": "nonpayable",
      "type": "function"
    },
    {
      "constant": false,
      "inputs": [
        {
          "internalType": "address",
          "name": "_voter_add",
          "type": "address"
        }
      ],
      "name": "Verify_User_Voting",
      "outputs": [],
      "payable": false,
      "stateMutability": "nonpayable",
      "type": "function"
    },
    {
      "constant": false,
      "inputs": [
        {
          "internalType": "uint256",
          "name": "_cand_id",
          "type": "uint256"
        }
      ],
      "name": "Vote_karo",
      "outputs": [],
      "payable": false,
      "stateMutability": "nonpayable",
      "type": "function"
    },
    {
      "constant": true,
      "inputs": [],
      "name": "WinningCount",
      "outputs": [
        {
          "internalType": "string",
          "name": "name",
          "type": "string"
        },
        {
          "internalType": "string",
          "name": "party_name",
          "type": "string"
        }
      ],
      "payable": false,
      "stateMutability": "view",
      "type": "function"
    }
  ],
  "bytecode": "0x60806040523480156200001157600080fd5b50620000fa6040518060400160405280600981526020017f416d6974205368616800000000000000000000000000000000000000000000008152506040518060400160405280600381526020017f424a5000000000000000000000000000000000000000000000000000000000008152506040518060400160405280600e81526020017f71717171717171717171717171710000000000000000000000000000000000008152506040518060400160405280600981526020017f7979797979797979790000000000000000000000000000000000000000000000815250620002d060201b60201c565b620001e26040518060400160405280600c81526020017f526168756c2047616e64686900000000000000000000000000000000000000008152506040518060400160405280600881526020017f434f4e47524553530000000000000000000000000000000000000000000000008152506040518060400160405280600e81526020017f71717171717171717171717171710000000000000000000000000000000000008152506040518060400160405280600981526020017f7979797979797979790000000000000000000000000000000000000000000000815250620002d060201b60201c565b620002ca6040518060400160405280600f81526020017f417276696e64204b656a726977616c00000000000000000000000000000000008152506040518060400160405280600f81526020017f41414d204144414d4920504152545900000000000000000000000000000000008152506040518060400160405280600e81526020017f71717171717171717171717171710000000000000000000000000000000000008152506040518060400160405280600981526020017f7979797979797979790000000000000000000000000000000000000000000000815250620002d060201b60201c565b6200045c565b6002600081548092919060010191905055506040518060a001604052808581526020018481526020018381526020018281526020016000815250600080600254815260200190815260200160002060008201518160000190805190602001906200033c929190620003ad565b5060208201518160010190805190602001906200035b929190620003ad565b5060408201518160020190805190602001906200037a929190620003ad565b50606082015181600301908051906020019062000399929190620003ad565b506080820151816004015590505050505050565b828054600181600116156101000203166002900490600052602060002090601f016020900481019282601f10620003f057805160ff191683800117855562000421565b8280016001018555821562000421579182015b828111156200042057825182559160200191906001019062000403565b5b50905062000430919062000434565b5090565b6200045991905b80821115620004555760008160009055506001016200043b565b5090565b90565b611c0a806200046c6000396000f3fe608060405234801561001057600080fd5b506004361061009e5760003560e01c8063af0dbe5411610066578063af0dbe54146105c3578063c83a918714610775578063de9566501461095e578063df876f9b14610bde578063ea480ab314610dc75761009e565b80630a19a385146100a35780630e48504d1461019257806330326c17146101c05780635e40e0e4146103b25780636a708963146103d0575b600080fd5b6100ab610e0b565b604051808060200180602001838103835285818151815260200191508051906020019080838360005b838110156100ef5780820151818401526020810190506100d4565b50505050905090810190601f16801561011c5780820380516001836020036101000a031916815260200191505b50838103825284818151815260200191508051906020019080838360005b8381101561015557808201518184015260208101905061013a565b50505050905090810190601f1680156101825780820380516001836020036101000a031916815260200191505b5094505050505060405180910390f35b6101be600480360360208110156101a857600080fd5b8101908080359060200190929190505050610fcc565b005b6101ec600480360360208110156101d657600080fd5b8101908080359060200190929190505050611157565b604051808060200180602001806020018060200186815260200185810385528a818151815260200191508051906020019080838360005b8381101561023e578082015181840152602081019050610223565b50505050905090810190601f16801561026b5780820380516001836020036101000a031916815260200191505b50858103845289818151815260200191508051906020019080838360005b838110156102a4578082015181840152602081019050610289565b50505050905090810190601f1680156102d15780820380516001836020036101000a031916815260200191505b50858103835288818151815260200191508051906020019080838360005b8381101561030a5780820151818401526020810190506102ef565b50505050905090810190601f1680156103375780820380516001836020036101000a031916815260200191505b50858103825287818151815260200191508051906020019080838360005b83811015610370578082015181840152602081019050610355565b50505050905090810190601f16801561039d5780820380516001836020036101000a031916815260200191505b50995050505050505050505060405180910390f35b6103ba6113ed565b6040518082815260200191505060405180910390f35b6105c1600480360360808110156103e657600080fd5b81019080803590602001909291908035906020019064010000000081111561040d57600080fd5b82018360208201111561041f57600080fd5b8035906020019184600183028401116401000000008311171561044157600080fd5b91908080601f016020809104026020016040519081016040528093929190818152602001838380828437600081840152601f19601f820116905080830192505050505050509192919290803590602001906401000000008111156104a457600080fd5b8201836020820111156104b657600080fd5b803590602001918460018302840111640100000000831117156104d857600080fd5b91908080601f016020809104026020016040519081016040528093929190818152602001838380828437600081840152601f19601f8201169050808301925050505050505091929192908035906020019064010000000081111561053b57600080fd5b82018360208201111561054d57600080fd5b8035906020019184600183028401116401000000008311171561056f57600080fd5b91908080601f016020809104026020016040519081016040528093929190818152602001838380828437600081840152601f19601f8201169050808301925050505050505091929192905050506113f3565b005b610605600480360360208110156105d957600080fd5b81019080803573ffffffffffffffffffffffffffffffffffffffff169060200190929190505050611477565b60405180806020018060200180602001871515151581526020018615151515815260200185815260200184810384528a818151815260200191508051906020019080838360005b8381101561066757808201518184015260208101905061064c565b50505050905090810190601f1680156106945780820380516001836020036101000a031916815260200191505b50848103835289818151815260200191508051906020019080838360005b838110156106cd5780820151818401526020810190506106b2565b50505050905090810190601f1680156106fa5780820380516001836020036101000a031916815260200191505b50848103825288818151815260200191508051906020019080838360005b83811015610733578082015181840152602081019050610718565b50505050905090810190601f1680156107605780820380516001836020036101000a031916815260200191505b50995050505050505050505060405180910390f35b61095c6004803603606081101561078b57600080fd5b81019080803590602001906401000000008111156107a857600080fd5b8201836020820111156107ba57600080fd5b803590602001918460018302840111640100000000831117156107dc57600080fd5b91908080601f016020809104026020016040519081016040528093929190818152602001838380828437600081840152601f19601f8201169050808301925050505050505091929192908035906020019064010000000081111561083f57600080fd5b82018360208201111561085157600080fd5b8035906020019184600183028401116401000000008311171561087357600080fd5b91908080601f016020809104026020016040519081016040528093929190818152602001838380828437600081840152601f19601f820116905080830192505050505050509192919290803590602001906401000000008111156108d657600080fd5b8201836020820111156108e857600080fd5b8035906020019184600183028401116401000000008311171561090a57600080fd5b91908080601f016020809104026020016040519081016040528093929190818152602001838380828437600081840152601f19601f820116905080830192505050505050509192919290505050611695565b005b610bdc6004803603608081101561097457600080fd5b810190808035906020019064010000000081111561099157600080fd5b8201836020820111156109a357600080fd5b803590602001918460018302840111640100000000831117156109c557600080fd5b91908080601f016020809104026020016040519081016040528093929190818152602001838380828437600081840152601f19601f82011690508083019250505050505050919291929080359060200190640100000000811115610a2857600080fd5b820183602082011115610a3a57600080fd5b80359060200191846001830284011164010000000083111715610a5c57600080fd5b91908080601f016020809104026020016040519081016040528093929190818152602001838380828437600081840152601f19601f82011690508083019250505050505050919291929080359060200190640100000000811115610abf57600080fd5b820183602082011115610ad157600080fd5b80359060200191846001830284011164010000000083111715610af357600080fd5b91908080601f016020809104026020016040519081016040528093929190818152602001838380828437600081840152601f19601f82011690508083019250505050505050919291929080359060200190640100000000811115610b5657600080fd5b820183602082011115610b6857600080fd5b80359060200191846001830284011164010000000083111715610b8a57600080fd5b91908080601f016020809104026020016040519081016040528093929190818152602001838380828437600081840152601f19601f82011690508083019250505050505050919291929050505061179f565b005b610dc560048036036060811015610bf457600080fd5b8101908080359060200190640100000000811115610c1157600080fd5b820183602082011115610c2357600080fd5b80359060200191846001830284011164010000000083111715610c4557600080fd5b91908080601f016020809104026020016040519081016040528093929190818152602001838380828437600081840152601f19601f82011690508083019250505050505050919291929080359060200190640100000000811115610ca857600080fd5b820183602082011115610cba57600080fd5b80359060200191846001830284011164010000000083111715610cdc57600080fd5b91908080601f016020809104026020016040519081016040528093929190818152602001838380828437600081840152601f19601f82011690508083019250505050505050919291929080359060200190640100000000811115610d3f57600080fd5b820183602082011115610d5157600080fd5b80359060200191846001830284011164010000000083111715610d7357600080fd5b91908080601f016020809104026020016040519081016040528093929190818152602001838380828437600081840152601f19601f820116905080830192505050505050509192919290505050611874565b005b610e0960048036036020811015610ddd57600080fd5b81019080803573ffffffffffffffffffffffffffffffffffffffff169060200190929190505050611990565b005b60608060008090506000600190505b6002548111610fc65781600080838152602001908152602001600020600401541115610fb9576000808281526020019081526020016000206004015491506000808281526020019081526020016000206000018054600181600116156101000203166002900480601f016020809104026020016040519081016040528092919081815260200182805460018160011615610100020316600290048015610f015780601f10610ed657610100808354040283529160200191610f01565b820191906000526020600020905b815481529060010190602001808311610ee457829003601f168201915b505050505093506000808281526020019081526020016000206001018054600181600116156101000203166002900480601f016020809104026020016040519081016040528092919081815260200182805460018160011615610100020316600290048015610fb15780601f10610f8657610100808354040283529160200191610fb1565b820191906000526020600020905b815481529060010190602001808311610f9457829003601f168201915b505050505092505b8080600101915050610e1a565b50509091565b600160003373ffffffffffffffffffffffffffffffffffffffff1673ffffffffffffffffffffffffffffffffffffffff16815260200190815260200160002060030160009054906101000a900460ff161561108f576040517f08c379a000000000000000000000000000000000000000000000000000000000815260040180806020018281038252600d8152602001807f416c726561647920566f7465640000000000000000000000000000000000000081525060200191505060405180910390fd5b80600160003373ffffffffffffffffffffffffffffffffffffffff1673ffffffffffffffffffffffffffffffffffffffff1681526020019081526020016000206004018190555060018060003373ffffffffffffffffffffffffffffffffffffffff1673ffffffffffffffffffffffffffffffffffffffff16815260200190815260200160002060030160006101000a81548160ff02191690831515021790555060016000808381526020019081526020016000206004016000828254019250508190555050565b6000602052806000526040600020600091509050806000018054600181600116156101000203166002900480601f0160208091040260200160405190810160405280929190818152602001828054600181600116156101000203166002900480156112035780601f106111d857610100808354040283529160200191611203565b820191906000526020600020905b8154815290600101906020018083116111e657829003601f168201915b505050505090806001018054600181600116156101000203166002900480601f0160208091040260200160405190810160405280929190818152602001828054600181600116156101000203166002900480156112a15780601f10611276576101008083540402835291602001916112a1565b820191906000526020600020905b81548152906001019060200180831161128457829003601f168201915b505050505090806002018054600181600116156101000203166002900480601f01602080910402602001604051908101604052809291908181526020018280546001816001161561010002031660029004801561133f5780601f106113145761010080835404028352916020019161133f565b820191906000526020600020905b81548152906001019060200180831161132257829003601f168201915b505050505090806003018054600181600116156101000203166002900480601f0160208091040260200160405190810160405280929190818152602001828054600181600116156101000203166002900480156113dd5780601f106113b2576101008083540402835291602001916113dd565b820191906000526020600020905b8154815290600101906020018083116113c057829003601f168201915b5050505050908060040154905085565b60025481565b82600080868152602001908152602001600020600001908051906020019061141c929190611ab0565b50816000808681526020019081526020016000206002019080519060200190611446929190611ab0565b50806000808681526020019081526020016000206003019080519060200190611470929190611ab0565b5050505050565b6001602052806000526040600020600091509050806000018054600181600116156101000203166002900480601f0160208091040260200160405190810160405280929190818152602001828054600181600116156101000203166002900480156115235780601f106114f857610100808354040283529160200191611523565b820191906000526020600020905b81548152906001019060200180831161150657829003601f168201915b505050505090806001018054600181600116156101000203166002900480601f0160208091040260200160405190810160405280929190818152602001828054600181600116156101000203166002900480156115c15780601f10611596576101008083540402835291602001916115c1565b820191906000526020600020905b8154815290600101906020018083116115a457829003601f168201915b505050505090806002018054600181600116156101000203166002900480601f01602080910402602001604051908101604052809291908181526020018280546001816001161561010002031660029004801561165f5780601f106116345761010080835404028352916020019161165f565b820191906000526020600020905b81548152906001019060200180831161164257829003601f168201915b5050505050908060030160009054906101000a900460ff16908060030160019054906101000a900460ff16908060040154905086565b82600160003373ffffffffffffffffffffffffffffffffffffffff1673ffffffffffffffffffffffffffffffffffffffff16815260200190815260200160002060000190805190602001906116eb929190611ab0565b5081600160003373ffffffffffffffffffffffffffffffffffffffff1673ffffffffffffffffffffffffffffffffffffffff1681526020019081526020016000206001019080519060200190611742929190611ab0565b5080600160003373ffffffffffffffffffffffffffffffffffffffff1673ffffffffffffffffffffffffffffffffffffffff1681526020019081526020016000206002019080519060200190611799929190611ab0565b50505050565b6002600081548092919060010191905055506040518060a00160405280858152602001848152602001838152602001828152602001600081525060008060025481526020019081526020016000206000820151816000019080519060200190611809929190611b30565b506020820151816001019080519060200190611826929190611b30565b506040820151816002019080519060200190611843929190611b30565b506060820151816003019080519060200190611860929190611b30565b506080820151816004015590505050505050565b6040518060c001604052808481526020018381526020018281526020016000151581526020016000151581526020016000815250600160003373ffffffffffffffffffffffffffffffffffffffff1673ffffffffffffffffffffffffffffffffffffffff1681526020019081526020016000206000820151816000019080519060200190611903929190611b30565b506020820151816001019080519060200190611920929190611b30565b50604082015181600201908051906020019061193d929190611b30565b5060608201518160030160006101000a81548160ff02191690831515021790555060808201518160030160016101000a81548160ff02191690831515021790555060a08201518160040155905050505050565b600160008273ffffffffffffffffffffffffffffffffffffffff1673ffffffffffffffffffffffffffffffffffffffff16815260200190815260200160002060030160019054906101000a900460ff1615611a53576040517f08c379a00000000000000000000000000000000000000000000000000000000081526004018080602001828103825260108152602001807f416c72656164792056657269666965640000000000000000000000000000000081525060200191505060405180910390fd5b60018060008373ffffffffffffffffffffffffffffffffffffffff1673ffffffffffffffffffffffffffffffffffffffff16815260200190815260200160002060030160016101000a81548160ff02191690831515021790555050565b828054600181600116156101000203166002900490600052602060002090601f016020900481019282601f10611af157805160ff1916838001178555611b1f565b82800160010185558215611b1f579182015b82811115611b1e578251825591602001919060010190611b03565b5b509050611b2c9190611bb0565b5090565b828054600181600116156101000203166002900490600052602060002090601f016020900481019282601f10611b7157805160ff1916838001178555611b9f565b82800160010185558215611b9f579182015b82811115611b9e578251825591602001919060010190611b83565b5b509050611bac9190611bb0565b5090565b611bd291905b80821115611bce576000816000905550600101611bb6565b5090565b9056fea265627a7a72315820bf0e72c361b517f339abede67cdaef00dfcb45df7873d4d8395af6d0de903d9a64736f6c63430005100032",
  "source": "// // SPDX-License-Identifier: MIT\n// pragma solidity >=0.4.0 <0.7.0;\n\n\n// contract SimpleStorage {\n//   uint storedData;\n\n//   constructor () public {\n//       set(123);\n//   }\n\n//   function set(uint x) public {\n//     storedData = x;\n//   }\n\n//   function get() public view returns (uint) {\n//     return storedData;\n//   }\n// }\n\npragma solidity >=0.4.0 <=0.6.0;\n\n\ncontract SimpleStorage{\n    \n    struct Voter{\n        string name; // user Name\n        string elect_card;// Email Id\n        string img; // Image of User for verififcation\n        bool voted; // Voted or not\n        bool auth; //if true when admin verify it;\n        uint cand_vote; //Candidate who got vote\n    }\n    \n    struct Proposal{\n        string cand_name; // Candidate Name\n        string party_name; // Name of the Party\n        string party_img; // Party Image i.e Hash value\n        string cand_img;  // Candidate Image\n        uint vote_count;  // Vote Count \n    }\n    \n    mapping(uint => Proposal) public proposal;\n    mapping(address => Voter) public voter;\n    \n    uint public num_cand;\n    \n    constructor () public{\n        AddCandidate('Amit Shah',\"BJP\",'qqqqqqqqqqqqqq','yyyyyyyyy');\n        AddCandidate('Rahul Gandhi',\"CONGRESS\",'qqqqqqqqqqqqqq','yyyyyyyyy');\n        AddCandidate('Arvind Kejriwal',\"AAM ADAMI PARTY\",'qqqqqqqqqqqqqq','yyyyyyyyy');\n    }\n    \n    function AddCandidate(string memory cand_name,string memory party_name,string memory party_img,string memory cand_img) public{\n        num_cand++;\n        proposal[num_cand] = Proposal(cand_name,party_name,party_img,cand_img,0);\n    }\n    \n    function UpdateCandidate(uint _id,string memory cand_name,string memory party_img,string memory cand_img) public{\n        proposal[_id].cand_name = cand_name;\n        proposal[_id].party_img = party_img;\n        proposal[_id].cand_img  = cand_img;\n    }\n    \n    \n    function AddUser(string memory name,string memory elect_card,string memory img) public {\n        voter[msg.sender] = Voter(name,elect_card,img,false,false,0); \n    }\n    \n    function Updateuser(string memory name,string memory elect_card,string memory img) public {\n        voter[msg.sender].name   = name;\n        voter[msg.sender].elect_card  = elect_card;\n        voter[msg.sender].img    = img;\n    }\n    \n    function Verify_User_Voting(address _voter_add) public\n    {\n        if(voter[_voter_add].auth)\n        {\n            revert(\"Already Verified\");\n        }\n        voter[_voter_add].auth = true;\n    }\n    \n    \n    function Vote_karo(uint _cand_id) public\n    {\n        if(voter[msg.sender].voted)\n        {\n            revert(\"Already Voted\");\n        }\n        voter[msg.sender].cand_vote= _cand_id;\n        voter[msg.sender].voted    = true;\n        proposal[_cand_id].vote_count +=1;\n    }\n    \n    \n    function WinningCount() public view returns(string memory name,string memory party_name)\n    {\n        uint WinningCounts =0;\n        \n        for(uint j=1;j<=num_cand;j++)\n        {\n            if(proposal[j].vote_count > WinningCounts)\n            {\n                WinningCounts = proposal[j].vote_count;\n                name = proposal[j].cand_name;\n                party_name =proposal[j].party_name;\n            }\n        }\n    }\n    \n}",
  "sourcePath": "C:/Users/shavej shaikh/Desktop/ElectionTOI/contracts/SimpleStorage.sol",
  "compiler": {
    "name": "solc",
    "version": "0.5.16+commit.9c3226ce.Emscripten.clang"
  },
  "schemaVersion": "3.3.0",
  "updatedAt": "2020-10-24T17:40:17.226Z",
  "networkType": "ethereum",
  "devdoc": {
    "methods": {}
  },
  "userdoc": {
    "methods": {}
  }
}